:100000000C9462000C948A000C948A000C948A0070
:100010000C948A000C948A000C948A000C948A0038
:100020000C948A000C948A000C948A000C94BB04F3
:100030000C948A000C948A000C948A000C948A0018
:100040000C9471040C948A000C943F040C941904D1
:100050000C948A000C948A000C948A000C948A00F8
:100060000C948A000C948A000000000024002700F1
:100070002A0000000000250028002B0000000000DE
:1000800023002600290004040404040404040202DA
:100090000202020203030303030301020408102007
:1000A0004080010204081020010204081020000012
:1000B0000008000201000003040700000000000027
:1000C00000009C0511241FBECFEFD8E0DEBFCDBFDE
:1000D00011E0A0E0B1E0EEE1F1E102C005900D9287
:1000E000A437B107D9F722E0A4E7B1E001C01D921F
:1000F000AD36B207E1F710E0C2E6D0E004C02197C8
:10010000FE010E948708C136D107C9F70E94260662
:100110000C948D080C9400008F929F92AF92BF9226
:10012000FF920F931F93CF93DF93F09052022BE037
:100130002F1508F44CC02091540208E512E0021B70
:10014000110927FD1395000F111F000F111F20919A
:100150005302C8E8D0E0C21BD10927FDD395CC0FCC
:10016000DD1FCC0FDD1F4E010D2E000CAA08BB08B1
:100170009801012E000C440B550B281939094A0926
:100180005B09DC010E94420824EB30E040E050E0D3
:100190000E941808820E931EA41EB51E8C169D0682
:1001A0002CF0E801801691060CF4E4012297CC0FA4
:1001B000DD1F2FB7F8948F2D90E0FC01EE0FFF1F8D
:1001C000E80FF91FE35DFD4FD283C1832FBFDF919D
:1001D000CF911F910F91FF90BF90AF909F908F9004
:1001E0000895AF92BF92CF92DF92EF92FF920F935A
:1001F0001F93CF93DF936C017B018B01040F151FBD
:10020000EB015E01AE18BF08C017D10759F0699124
:10021000D601ED91FC910190F081E02DC601099588
:10022000892B79F7C501DF91CF911F910F91FF9035
:10023000EF90DF90CF90BF90AF900895FC01538D69
:10024000448D252F30E0842F90E0821B930B5417B0
:1002500010F0CF96089501970895FC01918D828D3D
:10026000981761F0A28DAE0FBF2FB11D5D968C91D6
:10027000928D9F5F9F73928F90E008958FEF9FEF15
:100280000895FC01918D828D981731F0828DE80FD1
:10029000F11D858D90E008958FEF9FEF0895FC018B
:1002A000918D228D892F90E0805C9F4F821B910958
:1002B0008F739927089580E991E00E944F0121E012
:1002C000892B09F420E0822F089580E090E0892BAB
:1002D00029F00E945B0181110C9400000895FC013B
:1002E000A48DA80FB92FB11DA35ABF4F2C91848D97
:1002F00090E001968F739927848FA689B7892C93F4
:10030000A089B1898C91837080648C93938D848D46
:10031000981306C00288F389E02D80818F7D808349
:100320000895EF92FF920F931F93CF93DF93EC0109
:1003300081E0888F9B8D8C8D98131AC0E889F9898C
:10034000808185FF15C09FB7F894EE89FF8960838F
:10035000E889F98980818370806480839FBF81E010
:1003600090E0DF91CF911F910F91FF90EF90089552
:10037000F62E0B8D10E00F5F1F4F0F731127E02E2D
:100380008C8D8E110CC00FB607FCFACFE889F98965
:10039000808185FFF5CFCE010E946F01F1CFEB8DFB
:1003A000EC0FFD2FF11DE35AFF4FF0829FB7F89439
:1003B0000B8FEA89FB8980818062CFCFCF93DF9357
:1003C000EC01888D8823B9F0AA89BB89E889F9896D
:1003D0008C9185FD03C0808186FD0DC00FB607FCA2
:1003E000F7CF8C9185FFF2CF808185FFEDCFCE01D5
:1003F0000E946F01E9CFDF91CF910895833081F0A2
:1004000028F4813099F08230A9F008958730A9F05E
:100410008830C9F08430B1F4809180008F7D03C0B2
:10042000809180008F7780938000089584B58F77C6
:1004300084BD089584B58F7DFBCF8091B0008F7708
:100440008093B00008958091B0008F7DF9CFCF9355
:10045000DF93282F30E0F901E255FF4F8491F90135
:10046000E656FF4FD491F901EA57FF4FC491CC23D0
:10047000A1F081110E94FE01EC2FF0E0EE0FFF1FB2
:10048000E458FF4FA591B491EC91ED2381E090E009
:1004900009F480E0DF91CF91089580E090E0FACFF9
:1004A0001F93CF93DF93282F30E0F901E255FF4FE0
:1004B0008491F901E656FF4FD491F901EA57FF4FB5
:1004C000C491CC23A9F0162F81110E94FE01EC2FBC
:1004D000F0E0EE0FFF1FEE58FF4FA591B4918FB7DC
:1004E000F894EC91111108C0D095DE23DC938FBFF6
:1004F000DF91CF911F910895DE2BF8CFCF93DF933B
:1005000090E0FC01E656FF4F24918A579F4FFC0173
:1005100084918823D1F090E0880F991FFC01E8595D
:10052000FF4FA591B491FC01EE58FF4FC591D491B6
:10053000623071F49FB7F8943C91822F80958323A9
:100540008C93E8812E2B28839FBFDF91CF91089554
:100550008FB7F894EC912E2B2C938FBFF6CF089584
:1005600090E080E00895FC0101900020E9F73197C8
:10057000AF01481B590BBC0185E592E00C94F100DA
:10058000CF93DF93EC0160E08E810E94500261E026
:100590008E810E94500260E08E810E9450028BE8A2
:1005A00091E00197F1F7DF91CF910895CF92DF921B
:1005B000EF92FF920F931F93CF93DF936C017C0117
:1005C00087E0E80EF11CD0E0C0E0062F10E0B80193
:1005D0000C2E02C0759567950A94E2F76170F701D9
:1005E00081917F010E9450022196C430D10579F794
:1005F000C601DF91CF911F910F91FF90EF90DF9097
:10060000CF900C94C002CF92DF92EF92FF920F93A3
:100610001F93CF93DF93EC01F62E642F8C810E9401
:1006200050028D818F3F19F060E00E9450020F2D23
:1006300010E08F8584FF25C06E0187E0C80ED11CB5
:10064000F12CE12CB8010E2C02C0759567950A9427
:10065000E2F76170F60181916F010E945002FFEF95
:10066000EF1AFF0A88E0E816F10461F7CE01DF9186
:10067000CF911F910F91FF90EF90DF90CF900C944E
:10068000C002B80184E0759567958A95E1F7CE01BF
:100690000E94D6026F2DCE01DF91CF911F910F9155
:1006A000FF90EF90DF90CF900C94D60240E0682F3F
:1006B00085E592E00C94030381E00E9456038BE3EE
:1006C0009FE10197F1F70895CF93DF93823029F4EA
:1006D00090916402986090936402809368021092F3
:1006E000690280E480936A0280E180936B0280E576
:1006F00080936C0261E0809159020E947E02809199
:100700005A028F3F19F061E00E947E0261E0809101
:100710005B020E947E02C5E5D2E09E012555324073
:100720008091640284FD0BC084E090E0219628173C
:10073000390744F461E08E810E947E02EECF88E0AA
:1007400090E0F4CF8BE39DE00197F1F760E08091BA
:1007500059020E94500260E080915B020E945002A8
:1007600080915A028F3F19F060E00E945002809100
:10077000640284FD34C063E085E592E00E94D60205
:10078000CBE4D6E4CE010197F1F763E085E592E092
:100790000E94D6022197F1F763E085E592E00E947E
:1007A000D60283E592E00197F1F762E085E592E0F9
:1007B0000E94D6028091640280620E94560384E007
:1007C000809365028CE00E9456030E945C0382E0E5
:1007D0008093660286E0DF91CF910C94560380628D
:1007E0000E9456038BE496E40197F1F7809164022E
:1007F00080620E94560383E592E00197F1F78091B1
:10080000640280620E945603D5CF909168028917D6
:1008100010F08FEF890FE82FF0E0EB5AFD4F84893D
:1008200080680C94560341E00E94030381E090E04D
:1008300008951F920F920FB60F9211242F933F939A
:100840004F935F936F937F938F939F93AF93BF93D8
:10085000EF93FF9380E991E00E946F01FF91EF9188
:10086000BF91AF919F918F917F916F915F914F91C8
:100870003F912F910F900FBE0F901F9018951F92D0
:100880000F920FB60F9211242F938F939F93EF9394
:10089000FF93E091A001F091A1018081E091A60178
:1008A000F091A70182FD1BC090818091A9018F5F0B
:1008B0008F732091AA01821741F0E091A901F0E025
:1008C000E057FE4F958F8093A901FF91EF919F9183
:1008D0008F912F910F900FBE0F901F9018958081D0
:1008E000F4CF1F920F920FB60F9211242F933F93C4
:1008F0008F939F93AF93BF938091760190917701EF
:10090000A0917801B09179013091750123E0230F16
:100910002D3758F50196A11DB11D209375018093C7
:10092000760190937701A0937801B093790180913B
:100930007A0190917B01A0917C01B0917D0101969B
:10094000A11DB11D80937A0190937B01A0937C013E
:10095000B0937D01BF91AF919F918F913F912F9166
:100960000F900FBE0F901F90189526E8230F029648
:10097000A11DB11DD2CF1F920F920FB60F9211245D
:100980002F933F934F935F936F937F938F939F9397
:10099000AF93BF93CF93DF93EF93FF938091740155
:1009A000C0915102D0E087FF24C0109285001092C0
:1009B0008400809174018F5F809374018091740131
:1009C000082E000C990B8C179D0724F4809174015C
:1009D0008C30C4F18091840090918500049680341D
:1009E0009C4908F47AC08091840090918500049617
:1009F00076C080917401082E000C990B8C179D070E
:100A0000C4F6E09174018E2FEE0F990BFC01EE0FEE
:100A1000FF1FE80FF91FE35DFD4F808186FFC9CFFF
:100A2000E09174018E2FEE0F990BFC01EE0FFF1F6A
:100A3000E80FF91FE35DFD4F808160E08F730E9436
:100A40005002B7CF2091840030918500E09174016D
:100A50008E2FEE0F990BFC01EE0FFF1FE80FF91F11
:100A6000E35DFD4F81819281820F931F90938900F6
:100A700080938800E09174018E2FEE0F990BFC019A
:100A8000EE0FFF1FE80FF91FE35DFD4F808186FF2A
:100A900011C0E09174018E2FEE0F990BFC01EE0F47
:100AA000FF1FE80FF91FE35DFD4F808161E08F7349
:100AB0000E945002FF91EF91DF91CF91BF91AF91D2
:100AC0009F918F917F916F915F914F913F912F9166
:100AD0000F900FBE0F901F90189580E49CE99093A3
:100AE0008900809388008FEF80937401E3CF3FB734
:100AF000F89480917A0190917B01A0917C01B09152
:100B00007D0126B5A89B05C02F3F19F00196A11DB8
:100B1000B11D3FBFBA2FA92F982F8827BC01CD0147
:100B2000620F711D811D911D42E0660F771F881FA6
:100B3000991F4A95D1F70895CF931092930110927F
:100B4000920188EE93E0A0E0B0E08093940190934E
:100B50009501A0939601B093970183E191E0909362
:100B600091018093900185EC90E090939D0180939A
:100B70009C0184EC90E090939F0180939E0180EC17
:100B800090E09093A1018093A00181EC90E090937C
:100B9000A3018093A20182EC90E09093A501809341
:100BA000A40186EC90E09093A7018093A601109297
:100BB000A9011092AA011092AB011092AC011092FF
:100BC00058021092570285E291E09093560280936A
:100BD000550282E080935902CFEFC0935A0283E01E
:100BE00080935B0284E080935C0285E080935D02E9
:100BF00086E080935E0287E080935F02109260023D
:100C000010926102109262021092630210926402CA
:100C100081E00E946403809151028C30A0F491E045
:100C2000980F909351028093520290E0FC01EE0FD6
:100C3000FF1FE80FF91FE35DFD4F88EB9BE09283F8
:100C40008183CF910895C0935202FBCFCF93DF935E
:100C500000D01F92CDB7DEB7789484B5826084BD92
:100C600084B5816084BD85B5826085BD85B58160B0
:100C700085BD80916E00816080936E00109281002E
:100C800080918100826080938100809181008160E9
:100C900080938100809180008160809380008091AA
:100CA000B10084608093B1008091B0008160809336
:100CB000B00080917A00846080937A0080917A00FD
:100CC000826080937A0080917A00816080937A00BC
:100CD00080917A00806880937A001092C100E09140
:100CE000A001F091A10182E08083E0919C01F0914C
:100CF0009D011082E0919E01F0919F018FEC808315
:100D00001092A801E091A401F091A50186E08083F2
:100D1000E091A201F091A301808180618083E09144
:100D2000A201F091A301808188608083E091A201FB
:100D3000F091A301808180688083E091A201F0910D
:100D4000A30180818F7D80832EE0298361E08981EA
:100D50000E947E0239813F5F39833231B9F761E009
:100D600088E00E947E0262E08AE00E947E0262E0E9
:100D70008BE00E947E0262E08CE00E947E02809105
:100D800052028C3008F053C061E089E00E947E027C
:100D900080915202282F30E0F901EE0FFF1FE20F81
:100DA000F31FE35DFD4F9081907C996090839EE8F6
:100DB0009093530294E6909354022CE0622F0E9489
:100DC0007B08829FB001112430E020E0AB01420F8C
:100DD000531FFA01EE0FFF1FE40FF51FE35DFD4FF8
:100DE000908196FD16C02F5F3F4F2C30310571F773
:100DF00081110FC01092800082E0809381001092D8
:100E0000850010928400B19A80916F008260809377
:100E10006F00E09152028E2F90E0FC01EE0FFF1F59
:100E2000E80FF91FE35DFD4F80818064808390E0CF
:100E300080E00E948C0082E00E94640380E00E94B7
:100E400005040E945C034AE050E06DE271E085E534
:100E500092E00E94F10081E00E94050423E2222E2C
:100E6000312C30E0C32E30E0D32E93E0E92E91E018
:100E7000F92E10E000E08EE0800F898360E00E9490
:100E80005002C1010197F1F71B821A82BA809AE0E1
:100E9000B90E8B2D0E942702892B09F09AC08091F0
:100EA0007E0190917F010330110509F0A8C02A81CD
:100EB0003B812230310509F0A2C0029709F04DC0F4
:100EC0009091000180918001981347C09091010199
:100ED00080918101981341C00E945C0380E00E94D0
:100EE000050488E391E00E94B30261E088E00E947B
:100EF00050028AE590E00E948C0061E380E991E075
:100F00000E94910180E991E00E944F01892BD1F369
:100F100080E991E00E942D0160E088E00E9450028B
:100F200090E080E00E948C000E945C038DE291E0E2
:100F30000E94B30281E00E94050410927F0110928A
:100F40007E01C114D10409F490CF0E945B01882373
:100F500009F48BCF0E94000088CF80E00E94050436
:100F60008CE491E00E94B3020E9477054B015C0182
:100F700088EB482E8BE0582E612C712C0E9477054F
:100F8000681979098A099B09683E734081059105B2
:100F9000A8F331E0431A51086108710888EE880E01
:100FA00083E0981EA11CB11C41145104610471041A
:100FB00029F70E945C0380E00E94050482E691E02C
:100FC0000E94B30281E00E94050410927F011092FA
:100FD0007E018A819B8101969B838A83039709F016
:100FE00055CF61E089810E9450020F5F1F4F93E04F
:100FF000E90EF11C0430110509F03DCFA2CFFC0130
:10100000E058FE4FAA81BB81AE0DBF1D2C912083FD
:10101000019690937F0180937E016AE285E592E0DC
:101020000E9413048B2D0E942702892BD9F3D1CF64
:10103000052E97FB1EF400940E942F0857FD07D041
:101040000E944A0807FC03D04EF40C942F085095D8
:101050004095309521953F4F4F4F5F4F08959095A4
:101060008095709561957F4F8F4F9F4F08950E9497
:101070006C08A59F900DB49F900DA49F800D911DAD
:1010800011240895B7FF0C9437080E943708821B7B
:10109000930B0895A1E21A2EAA1BBB1BFD010DC0E4
:1010A000AA1FBB1FEE1FFF1FA217B307E407F50718
:1010B00020F0A21BB30BE40BF50B661F771F881FF4
:1010C000991F1A9469F760957095809590959B018A
:1010D000AC01BD01CF010895A29FB001B39FC00133
:1010E000A39F700D811D1124911DB29F700D811D54
:1010F0001124911D0895991B79E004C0991F96173A
:1011000008F0961B881F7A95C9F780950895EE0F11
:0E111000FF1F0590F491E02D0994F894FFCF95
:10111E003030003132333435363738392A30230007
:10112E000000009101F1001E01DE014F012D014171
:10113E0001000000001304F100B002AF0250617311
:10114E0073776F72643A200057656C636F6D65211B
:10115E0020202020202020202020200057726F6E7B
:10116E006720496E707574212120202020202020B8
:10117E00200050617373776F72643A202020202014
:04118E00202000001D
:107E0000112484B714BE81FFF0D085E080938100F7
:107E100082E08093C00088E18093C10086E0809377
:107E2000C20080E18093C4008EE0C9D0259A86E02C
:107E300020E33CEF91E0309385002093840096BBD3
:107E4000B09BFECF1D9AA8958150A9F7CC24DD24C4
:107E500088248394B5E0AB2EA1E19A2EF3E0BF2EE7
:107E6000A2D0813461F49FD0082FAFD0023811F036
:107E7000013811F484E001C083E08DD089C08234E0
:107E800011F484E103C0853419F485E0A6D080C0E4
:107E9000853579F488D0E82EFF2485D0082F10E0AE
:107EA000102F00270E291F29000F111F8ED06801E7
:107EB0006FC0863521F484E090D080E0DECF843638
:107EC00009F040C070D06FD0082F6DD080E0C81688
:107ED00080E7D80618F4F601B7BEE895C0E0D1E017
:107EE00062D089930C17E1F7F0E0CF16F0E7DF06D8
:107EF00018F0F601B7BEE89568D007B600FCFDCFD4
:107F0000A601A0E0B1E02C9130E011968C91119780
:107F100090E0982F8827822B932B1296FA010C0160
:107F200087BEE89511244E5F5F4FF1E0A038BF0790
:107F300051F7F601A7BEE89507B600FCFDCF97BE46
:107F4000E89526C08437B1F42ED02DD0F82E2BD052
:107F50003CD0F601EF2C8F010F5F1F4F84911BD097
:107F6000EA94F801C1F70894C11CD11CFA94CF0C13
:107F7000D11C0EC0853739F428D08EE10CD085E9AC
:107F80000AD08FE07ACF813511F488E018D01DD067
:107F900080E101D065CF982F8091C00085FFFCCF94
:107FA0009093C60008958091C00087FFFCCF809118
:107FB000C00084FD01C0A8958091C6000895E0E648
:107FC000F0E098E1908380830895EDDF803219F02E
:107FD00088E0F5DFFFCF84E1DECF1F93182FE3DFCA
:107FE0001150E9F7F2DF1F91089580E0E8DFEE27F6
:047FF000FF270994CA
:027FFE00040479
:0400000300007E007B
:00000001FF
