:100000000C9462000C947C030C9455030C948A00AD
:100010000C948A000C948A000C948A000C948A0038
:100020000C948A000C948A000C948A000C948A0028
:100030000C948A000C948A000C948A000C948A0018
:100040000C940B030C948A000C94D9020C94B30208
:100050000C948A000C948A000C948A000C948A00F8
:100060000C948A000C948A000000000024002700F1
:100070002A0000000000250028002B0000000000DE
:1000800023002600290004040404040404040202DA
:100090000202020203030303030301020408102007
:1000A0004080010204081020010204081020000012
:1000B0000008000201000003040700000000000027
:1000C00000001F0611241FBECFEFD8E0DEBFCDBF5A
:1000D00011E0A0E0B1E0E0E1F0E102C005900D9296
:1000E000A233B107D9F721E0A2E3B1E001C01D922C
:1000F000A63EB207E1F710E0C2E6D0E004C02197C7
:10010000FE010E94F107C136D107C9F70E94A3037F
:100110000C9406080C94000080913F0190914001DE
:10012000A0914101B09142010196A11DB11D8093A2
:100130003F0190934001A0934101B0934201089583
:10014000AF92BF92CF92DF92EF92FF920F931F93E5
:10015000CF93DF936C017B018B01040F151FEB0123
:100160005E01AE18BF08C017D10759F06991D601DA
:10017000ED91FC910190F081E02DC6010995892B4C
:1001800079F7C501DF91CF911F910F91FF90EF900B
:10019000DF90CF90BF90AF900895FC01538D448DB8
:1001A000252F30E0842F90E0821B930B541710F022
:1001B000CF96089501970895FC01918D828D98172F
:1001C00061F0A28DAE0FBF2FB11D5D968C91928D07
:1001D0009F5F9F73928F90E008958FEF9FEF089538
:1001E000FC01918D828D981731F0828DE80FF11D01
:1001F000858D90E008958FEF9FEF0895FC01918D1C
:10020000228D892F90E0805C9F4F821B91098F7314
:100210009927089589E491E00E94FE0021E0892B4E
:1002200009F420E0822F089580E090E0892B29F0E6
:100230000E940A0181110C9400000895FC01A48D14
:10024000A80FB92FB11DA35ABF4F2C91848D90E0F8
:1002500001968F739927848FA689B7892C93A089DB
:10026000B1898C91837080648C93938D848D981365
:1002700006C00288F389E02D80818F7D80830895F8
:10028000EF92FF920F931F93CF93DF93EC0181E0E6
:10029000888F9B8D8C8D98131AC0E889F98980818D
:1002A00085FF15C09FB7F894EE89FF896083E889C0
:1002B000F98980818370806480839FBF81E090E0B2
:1002C000DF91CF911F910F91FF90EF900895F62E3F
:1002D0000B8D10E00F5F1F4F0F731127E02E8C8DD9
:1002E0008E110CC00FB607FCFACFE889F98980811E
:1002F00085FFF5CFCE010E941E01F1CFEB8DEC0FF3
:10030000FD2FF11DE35AFF4FF0829FB7F8940B8F3A
:10031000EA89FB8980818062CFCFCF93DF93EC01A4
:10032000888D8823B9F0AA89BB89E889F9898C91DD
:1003300085FD03C0808186FD0DC00FB607FCF7CF99
:100340008C9185FFF2CF808185FFEDCFCE010E9499
:100350001E01E9CFDF91CF910895833081F028F419
:10036000813099F08230A9F008958730A9F0883063
:10037000C9F08430B1F4809180008F7D03C08091FA
:1003800080008F7780938000089584B58F7784BD37
:10039000089584B58F7DFBCF8091B0008F778093D7
:1003A000B00008958091B0008F7DF9CF1F93CF9357
:1003B000DF93282F30E0F901E255FF4F8491F901D6
:1003C000E656FF4FD491F901EA57FF4FC491CC2371
:1003D000A9F0162F81110E94AD01EC2FF0E0EE0F75
:1003E000FF1FEE58FF4FA591B4918FB7F894EC9191
:1003F000111108C0D095DE23DC938FBFDF91CF9120
:100400001F910895DE2BF8CFE7EBF0E0E491E330A5
:1004100039F160F4E130D1F0E230E9F060E08038A9
:1004200091050CF061E089E00C94D601E73011F100
:10043000E83041F1E43091F7209180002062209370
:10044000800090938B0080938A00089594B5906803
:1004500094BD87BD089594B5906294BD88BD0895FC
:1004600020918000206820938000909389008093E1
:10047000880008959091B00090689093B0008093A8
:10048000B30008959091B00090629093B000809373
:10049000B4000895CF93DF9390E0FC01E656FF4F40
:1004A00024918A579F4FFC0184918823D1F090E0DA
:1004B000880F991FFC01E859FF4FA591B491FC01E9
:1004C000EE58FF4FC591D49161110EC09FB7F894BB
:1004D0008C91E22FE0958E238C932881E223E88390
:1004E0009FBFDF91CF9108958FB7F894EC91E22BE5
:1004F000EC938FBFF6CF8E50806480937C00809108
:100500007A00806480937A0080917A0086FDFCCF27
:10051000809178009091790008953FB7F894809188
:10052000330190913401A0913501B091360126B587
:10053000A89B05C02F3F19F00196A11DB11D3FBF1B
:10054000BA2FA92F982F8827BC01CD01620F711DEA
:10055000811D911D42E0660F771F881F991F4A95E4
:10056000D1F7089508951F920F920FB60F9211249C
:100570002F933F934F935F936F937F938F939F93AB
:10058000AF93BF93EF93FF9389E491E00E941E0124
:10059000FF91EF91BF91AF919F918F917F916F915B
:1005A0005F914F913F912F910F900FBE0F901F9031
:1005B00018951F920F920FB60F9211242F938F93BD
:1005C0009F93EF93FF93E0915901F0915A0180813D
:1005D000E0915F01F091600182FD1BC090818091EC
:1005E00062018F5F8F7320916301821741F0E09168
:1005F0006201F0E0E75BFE4F958F80936201FF910F
:10060000EF919F918F912F910F900FBE0F901F90A0
:1006100018958081F4CF1F920F920FB60F9211247C
:100620002F933F938F939F93AF93BF938091370105
:1006300090913801A0913901B0913A013091320185
:1006400023E0230F2D3758F50196A11DB11D2093EE
:1006500032018093370190933801A0933901B09310
:100660003A018091330190913401A0913501B0910C
:1006700036010196A11DB11D809333019093340181
:10068000A0933501B0933601BF91AF919F918F91A7
:100690003F912F910F900FBE0F901F90189526E855
:1006A000230F0296A11DB11DD2CF1F920F920FB63C
:1006B0000F9211242F933F934F935F936F937F93E8
:1006C0008F939F93AF93BF93EF93FF93E0910201BA
:1006D000F09103010995FF91EF91BF91AF919F9127
:1006E0008F917F916F915F914F913F912F910F90DB
:1006F0000FBE0F901F9018951F920F920FB60F927A
:1007000011242F933F934F935F936F937F938F9316
:100710009F93AF93BF93EF93FF93E0910001F0910C
:1007200001010995FF91EF91BF91AF919F918F9139
:100730007F916F915F914F913F912F910F900FBEDD
:100740000F901F901895CF93DF93CDB7DEB7A19789
:100750000FB6F894DEBF0FBECDBF789484B582602B
:1007600084BD84B5816084BD85B5826085BD85B555
:10077000816085BD80916E00816080936E001092D3
:10078000810080918100826080938100809181004E
:1007900081608093810080918000816080938000DF
:1007A0008091B10084608093B1008091B00081603D
:1007B0008093B00080917A00846080937A00809169
:1007C0007A00826080937A0080917A0081608093C1
:1007D0007A0080917A00806880937A001092C1003C
:1007E00014E061E0812F0E944A021F5F1E30C9F7AA
:1007F00060E082E00E944A0260E08FE00E944A02CC
:1008000060E08EE00E944A0260E083E00E944A02BB
:1008100060E085E00E94D60160E089E00E94D60198
:1008200060E084E00E94D60161E08AE00E94D60187
:1008300061E08BE00E94D60161E08CE00E94D6016D
:1008400061E08DE00E94D601E0915901F0915A01DA
:1008500082E08083E0915501F09156011082E09191
:100860005701F09158018FEC808310926101E09163
:100870005D01F0915E0186E08083E0915B01F09183
:100880005C01808180618083E0915B01F0915C017B
:10089000808188608083E0915B01F0915C018081C0
:1008A00080688083E0915B01F0915C0180818F7DA5
:1008B00080838CE890E09093010180930001809107
:1008C00069008C7F816080936900E89A2FB7F89463
:1008D0008091370190913801A0913901B0913A018E
:1008E0002FBF8093430190934401A0934501B0939F
:1008F000460180913F0190914001A0914101B0914A
:10090000420180933B0190933C01A0933D01B09341
:100910003E0189E491E00E94FE00892BD1F389E435
:1009200091E00E94DC005AE0852E912C7E0120E2AD
:10093000E20EF11C33E2232E312C41E3A42E8FE092
:100940000E947B02BC01990F880B990B0E948406C0
:100950002AE038E240EA5BE30E94E80620E030E06B
:1009600048EC52E40E94E8060E944C066F30710584
:100970004CF461E089E00E944A0260E089E00E9454
:10098000D6010CC0693171050CF021C161E089E02C
:100990000E944A0285E590E00E9404022FB7F89475
:1009A0008091370190913801A0913901B0913A01BD
:1009B0002FBF4091430150914401609145017091D6
:1009C0004601841B950BA60BB70B883E9340A105EF
:1009D000B10508F456C020913F013091400140918B
:1009E00041015091420180913B0190913C01A091C5
:1009F0003D01B0913E01281B390B4A0B5B0B209344
:100A00003B0130933C0140933D0150933E0157FF21
:100A100007C050954095309521953F4F4F4F5F4F00
:100A2000ACE3B0E00E94B00720E330E040E050E0EB
:100A30000E94910730934801209347012FB7F89403
:100A40008091370190913801A0913901B0913A011C
:100A50002FBF8093430190934401A0934501B0932D
:100A6000460180913F0190914001A0914101B091D8
:100A7000420180933B0190933C01A0933D01B093D0
:100A80003E01C0904701D090480102E311E0C60149
:100A9000B4010E947D07FC01EE0FFF1FEA5EFE4FCE
:100AA000708028E0B22E672D617087E00E94D60129
:100AB000769461E086E00E94D60160E086E00E94C4
:100AC000D601BA94B110EFCF61E088E00E94D60160
:100AD000C1010197F1F702501109F801B08060E0FF
:100AE0008B2D0E94D60160E088E00E94D6010E9412
:100AF0008D022B013C010E948D0264197509860943
:100B00009709683E734081059105A8F3C601B401B9
:100B10000E947D076B0161E08B2D0E94D6018AE265
:100B200091E08017910709F0B2CF8EE00E947B021E
:100B300060E0883592403CF48EE00E947B02803970
:100B4000914024F461E085E00E94D601E1EBF0E001
:100B50008491EDE9F0E00491E9E8F0E014911111DD
:100B600052C060E085E00E94D60160E089E00E940A
:100B7000D60160E084E00E94D60161E08AE00E9434
:100B8000D60161E08BE00E94D60161E08CE00E941A
:100B9000D60161E08DE00E94D60119A2A8A2F7015A
:100BA00001900020E9F73197AF014E195F09B701B5
:100BB00089E491E00E94A00089E491E00E94FE0097
:100BC000892BD1F389E491E00E94DC002BC06332D1
:100BD00071055CF461E089E00E944A028AEA90E0D3
:100BE0000E94040260E084E0CACE6D3271054CF4CC
:100BF00061E089E00E944A0261E089E00E94D6013A
:100C0000F1CF61E0F0CF81110E94AD01E12FF0E062
:100C1000EE0FFF1FE458FF4FA591B4918C9108236C
:100C200009F49FCF80E090E0892B09F488CE0E94E0
:100C30000A01882309F47ECE0E9400007BCEE9E4FD
:100C4000F1E01382128288EE93E0A0E0B0E08483AA
:100C50009583A683B78388E091E09183808385ECB8
:100C600090E09587848784EC90E09787868780EC76
:100C700090E0918B808B81EC90E0938B828B82EC67
:100C800090E0958B848B86EC90E0978B868B118E11
:100C9000128E138E148E08950E9453066894B1111B
:100CA0000C94E20608950E94C70688F09F5798F0BA
:100CB000B92F9927B751B0F0E1F0660F771F881F61
:100CC000991F1AF0BA95C9F714C0B13091F00E947B
:100CD000E106B1E008950C94E106672F782F88278C
:100CE000B85F39F0B93FCCF3869577956795B395A2
:100CF000D9F73EF490958095709561957F4F8F4F11
:100D00009F4F0895E89409C097FB3EF49095809515
:100D1000709561957F4F8F4F9F4F9923A9F0F92FC1
:100D200096E9BB279395F695879577956795B7953F
:100D3000F111F8CFFAF4BB0F11F460FF1BC06F5F25
:100D40007F4F8F4F9F4F16C0882311F096E911C037
:100D5000772321F09EE8872F762F05C0662371F058
:100D600096E8862F70E060E02AF09A95660F771F6C
:100D7000881FDAF7880F9695879597F9089557FD9C
:100D80009058440F551F59F05F3F71F04795880FF9
:100D900097FB991F61F09F3F79F087950895121690
:100DA00013061406551FF2CF4695F1DF08C016163C
:100DB00017061806991FF1CF8695710561050894ED
:100DC0000895E894BB2766277727CB0197F9089504
:100DD0000E94FB060C946C070E945E0738F00E948C
:100DE000650720F0952311F00C9455070C945B07D0
:100DF00011240C94E2060E94BF0670F3959FC1F384
:100E0000950F50E0551F629FF001729FBB27F00DB8
:100E1000B11D639FAA27F00DB11DAA1F649F66270D
:100E2000B00DA11D661F829F2227B00DA11D621F5C
:100E3000739FB00DA11D621F839FA00D611D221F16
:100E4000749F3327A00D611D231F849F600D211DFA
:100E5000822F762F6A2F11249F5750409AF0F1F07D
:100E600088234AF0EE0FFF1FBB1F661F771F881FE6
:100E700091505040A9F79E3F510580F00C945507C2
:100E80000C94E2065F3FE4F3983ED4F386957795A1
:100E90006795B795F795E7959F5FC1F7FE2B880F8C
:100EA000911D9695879597F9089597F99F6780E822
:100EB00070E060E008959FEF80EC089500240A94AC
:100EC0001616170618060906089500240A94121625
:100ED0001306140605060895092E0394000C11F458
:100EE000882352F0BB0F40F4BF2B11F460FF04C005
:100EF0006F5F7F4F8F4F9F4F089597FB072E16F41C
:100F0000009407D077FD09D00E94BB0707FC05D0ED
:100F10003EF4909581959F4F0895709561957F4F10
:100F20000895052E97FB1EF400940E94A80757FD14
:100F300007D00E94CF0707FC03D04EF40C94A807FB
:100F400050954095309521953F4F4F4F5F4F0895F5
:100F500090958095709561957F4F8F4F9F4F089525
:100F60000E94F707A59F900DB49F900DA49F800D40
:100F7000911D11240895AA1BBB1B51E107C0AA1F94
:100F8000BB1FA617B70710F0A61BB70B881F991F2A
:100F90005A95A9F780959095BC01CD010895A1E2DD
:100FA0001A2EAA1BBB1BFD010DC0AA1FBB1FEE1FE3
:100FB000FF1FA217B307E407F50720F0A21BB30B2E
:100FC000E40BF50B661F771F881F991F1A9469F7AA
:100FD00060957095809590959B01AC01BD01CF0106
:100FE0000895EE0FFF1F0590F491E02D0994A29F44
:100FF000B001B39FC001A39F700D811D1124911DED
:10100000B29F700D811D1124911D0895F894FFCF9A
:10101000B202B202000000004001A000CD008D012C
:10102000FE00DC00F000FC006000DA00F200660068
:10103000B600BE00E000FE00F6000A000B000C0047
:021040000D00A1
:00000001FF
